{
  "_format": "hh-sol-artifact-1",
  "contractName": "Escrow",
  "sourceName": "contracts/Escrow.sol",
  "abi": [
    {
      "inputs": [
        {
          "internalType": "address",
          "name": "procurementAddress",
          "type": "address"
        }
      ],
      "stateMutability": "nonpayable",
      "type": "constructor"
    },
    {
      "inputs": [
        {
          "internalType": "uint256",
          "name": "orderId",
          "type": "uint256"
        }
      ],
      "name": "confirmDelivery",
      "outputs": [],
      "stateMutability": "nonpayable",
      "type": "function"
    },
    {
      "inputs": [
        {
          "internalType": "uint256",
          "name": "itemId",
          "type": "uint256"
        },
        {
          "internalType": "address",
          "name": "seller",
          "type": "address"
        },
        {
          "internalType": "uint256",
          "name": "quantity",
          "type": "uint256"
        }
      ],
      "name": "createOrder",
      "outputs": [],
      "stateMutability": "payable",
      "type": "function"
    },
    {
      "inputs": [],
      "name": "orderCount",
      "outputs": [
        {
          "internalType": "uint256",
          "name": "",
          "type": "uint256"
        }
      ],
      "stateMutability": "view",
      "type": "function"
    },
    {
      "inputs": [
        {
          "internalType": "uint256",
          "name": "",
          "type": "uint256"
        }
      ],
      "name": "orders",
      "outputs": [
        {
          "internalType": "uint256",
          "name": "itemId",
          "type": "uint256"
        },
        {
          "internalType": "address",
          "name": "seller",
          "type": "address"
        },
        {
          "internalType": "address",
          "name": "buyer",
          "type": "address"
        },
        {
          "internalType": "uint256",
          "name": "quantity",
          "type": "uint256"
        },
        {
          "internalType": "uint256",
          "name": "amount",
          "type": "uint256"
        },
        {
          "internalType": "bool",
          "name": "delivered",
          "type": "bool"
        },
        {
          "internalType": "bool",
          "name": "paidOut",
          "type": "bool"
        }
      ],
      "stateMutability": "view",
      "type": "function"
    },
    {
      "inputs": [],
      "name": "procurement",
      "outputs": [
        {
          "internalType": "contract Procurement",
          "name": "",
          "type": "address"
        }
      ],
      "stateMutability": "view",
      "type": "function"
    }
  ],
  "bytecode": "0x608060405234801561001057600080fd5b50604051610f33380380610f33833981810160405281019061003291906100db565b806000806101000a81548173ffffffffffffffffffffffffffffffffffffffff021916908373ffffffffffffffffffffffffffffffffffffffff16021790555050610108565b600080fd5b600073ffffffffffffffffffffffffffffffffffffffff82169050919050565b60006100a88261007d565b9050919050565b6100b88161009d565b81146100c357600080fd5b50565b6000815190506100d5816100af565b92915050565b6000602082840312156100f1576100f0610078565b5b60006100ff848285016100c6565b91505092915050565b610e1c806101176000396000f3fe60806040526004361061004a5760003560e01c80631e8271761461004f5780632453ffa81461007a578063a85c38ef146100a5578063e2b91afb146100e8578063fd84cb9714610104575b600080fd5b34801561005b57600080fd5b5061006461012d565b60405161007191906107f5565b60405180910390f35b34801561008657600080fd5b5061008f610151565b60405161009c9190610829565b60405180910390f35b3480156100b157600080fd5b506100cc60048036038101906100c79190610875565b610157565b6040516100df97969594939291906108de565b60405180910390f35b61010260048036038101906100fd9190610979565b6101f3565b005b34801561011057600080fd5b5061012b60048036038101906101269190610875565b6105ce565b005b60008054906101000a900473ffffffffffffffffffffffffffffffffffffffff1681565b60025481565b60016020528060005260406000206000915090508060000154908060010160009054906101000a900473ffffffffffffffffffffffffffffffffffffffff16908060020160009054906101000a900473ffffffffffffffffffffffffffffffffffffffff16908060030154908060040154908060050160009054906101000a900460ff16908060050160019054906101000a900460ff16905087565b60008111610236576040517f08c379a000000000000000000000000000000000000000000000000000000000815260040161022d90610a29565b60405180910390fd5b60008060008060009054906101000a900473ffffffffffffffffffffffffffffffffffffffff1673ffffffffffffffffffffffffffffffffffffffff1663c193258686886040518363ffffffff1660e01b8152600401610297929190610a49565b606060405180830381865afa1580156102b4573d6000803e3d6000fd5b505050506040513d601f19601f820116820180604052508101906102d89190610a87565b925092509250858314610320576040517f08c379a000000000000000000000000000000000000000000000000000000000815260040161031790610b26565b60405180910390fd5b80841115610363576040517f08c379a000000000000000000000000000000000000000000000000000000000815260040161035a90610b92565b60405180910390fd5b600084836103719190610be1565b90508034146103b5576040517f08c379a00000000000000000000000000000000000000000000000000000000081526004016103ac90610c6f565b60405180910390fd5b6040518060e001604052808881526020018773ffffffffffffffffffffffffffffffffffffffff1681526020013373ffffffffffffffffffffffffffffffffffffffff168152602001868152602001348152602001600015158152602001600015158152506001600060025481526020019081526020016000206000820151816000015560208201518160010160006101000a81548173ffffffffffffffffffffffffffffffffffffffff021916908373ffffffffffffffffffffffffffffffffffffffff16021790555060408201518160020160006101000a81548173ffffffffffffffffffffffffffffffffffffffff021916908373ffffffffffffffffffffffffffffffffffffffff160217905550606082015181600301556080820151816004015560a08201518160050160006101000a81548160ff02191690831515021790555060c08201518160050160016101000a81548160ff02191690831515021790555090505060008054906101000a900473ffffffffffffffffffffffffffffffffffffffff1673ffffffffffffffffffffffffffffffffffffffff1663ac710ac88789886040518463ffffffff1660e01b815260040161057b93929190610c8f565b600060405180830381600087803b15801561059557600080fd5b505af11580156105a9573d6000803e3d6000fd5b50505050600260008154809291906105c090610cc6565b919050555050505050505050565b60006001600083815260200190815260200160002090508060020160009054906101000a900473ffffffffffffffffffffffffffffffffffffffff1673ffffffffffffffffffffffffffffffffffffffff163373ffffffffffffffffffffffffffffffffffffffff1614610677576040517f08c379a000000000000000000000000000000000000000000000000000000000815260040161066e90610d5a565b60405180910390fd5b8060050160019054906101000a900460ff16156106c9576040517f08c379a00000000000000000000000000000000000000000000000000000000081526004016106c090610dc6565b60405180910390fd5b60018160050160006101000a81548160ff0219169083151502179055508060010160009054906101000a900473ffffffffffffffffffffffffffffffffffffffff1673ffffffffffffffffffffffffffffffffffffffff166108fc82600401549081150290604051600060405180830381858888f19350505050158015610754573d6000803e3d6000fd5b5060018160050160016101000a81548160ff0219169083151502179055505050565b600073ffffffffffffffffffffffffffffffffffffffff82169050919050565b6000819050919050565b60006107bb6107b66107b184610776565b610796565b610776565b9050919050565b60006107cd826107a0565b9050919050565b60006107df826107c2565b9050919050565b6107ef816107d4565b82525050565b600060208201905061080a60008301846107e6565b92915050565b6000819050919050565b61082381610810565b82525050565b600060208201905061083e600083018461081a565b92915050565b600080fd5b61085281610810565b811461085d57600080fd5b50565b60008135905061086f81610849565b92915050565b60006020828403121561088b5761088a610844565b5b600061089984828501610860565b91505092915050565b60006108ad82610776565b9050919050565b6108bd816108a2565b82525050565b60008115159050919050565b6108d8816108c3565b82525050565b600060e0820190506108f3600083018a61081a565b61090060208301896108b4565b61090d60408301886108b4565b61091a606083018761081a565b610927608083018661081a565b61093460a08301856108cf565b61094160c08301846108cf565b98975050505050505050565b610956816108a2565b811461096157600080fd5b50565b6000813590506109738161094d565b92915050565b60008060006060848603121561099257610991610844565b5b60006109a086828701610860565b93505060206109b186828701610964565b92505060406109c286828701610860565b9150509250925092565b600082825260208201905092915050565b7f5175616e74697479206d757374206265203e2030000000000000000000000000600082015250565b6000610a136014836109cc565b9150610a1e826109dd565b602082019050919050565b60006020820190508181036000830152610a4281610a06565b9050919050565b6000604082019050610a5e60008301856108b4565b610a6b602083018461081a565b9392505050565b600081519050610a8181610849565b92915050565b600080600060608486031215610aa057610a9f610844565b5b6000610aae86828701610a72565b9350506020610abf86828701610a72565b9250506040610ad086828701610a72565b9150509250925092565b7f4c697374696e67206e6f7420666f756e64000000000000000000000000000000600082015250565b6000610b106011836109cc565b9150610b1b82610ada565b602082019050919050565b60006020820190508181036000830152610b3f81610b03565b9050919050565b7f4e6f7420656e6f756768207175616e7469747900000000000000000000000000600082015250565b6000610b7c6013836109cc565b9150610b8782610b46565b602082019050919050565b60006020820190508181036000830152610bab81610b6f565b9050919050565b7f4e487b7100000000000000000000000000000000000000000000000000000000600052601160045260246000fd5b6000610bec82610810565b9150610bf783610810565b9250828202610c0581610810565b91508282048414831517610c1c57610c1b610bb2565b5b5092915050565b7f496e636f727265637420616d6f756e7400000000000000000000000000000000600082015250565b6000610c596010836109cc565b9150610c6482610c23565b602082019050919050565b60006020820190508181036000830152610c8881610c4c565b9050919050565b6000606082019050610ca460008301866108b4565b610cb1602083018561081a565b610cbe604083018461081a565b949350505050565b6000610cd182610810565b91507fffffffffffffffffffffffffffffffffffffffffffffffffffffffffffffffff8203610d0357610d02610bb2565b5b600182019050919050565b7f4f6e6c7920627579657200000000000000000000000000000000000000000000600082015250565b6000610d44600a836109cc565b9150610d4f82610d0e565b602082019050919050565b60006020820190508181036000830152610d7381610d37565b9050919050565b7f416c726561647920706169640000000000000000000000000000000000000000600082015250565b6000610db0600c836109cc565b9150610dbb82610d7a565b602082019050919050565b60006020820190508181036000830152610ddf81610da3565b905091905056fea264697066735822122028748c6262ed9124f9c5190917d7237fb978763d5bbd44f7b817307479ee377564736f6c63430008130033",
  "linkReferences": {},
  "deployedLinkReferences": {}
}