{
  "_format": "hh-sol-artifact-1",
  "contractName": "Escrow",
  "sourceName": "contracts/Escrow.sol",
  "abi": [
    {
      "inputs": [
        {
          "internalType": "address",
          "name": "procurementAddress",
          "type": "address"
        }
      ],
      "stateMutability": "nonpayable",
      "type": "constructor"
    },
    {
      "inputs": [
        {
          "internalType": "uint256",
          "name": "orderId",
          "type": "uint256"
        }
      ],
      "name": "confirmDelivery",
      "outputs": [],
      "stateMutability": "nonpayable",
      "type": "function"
    },
    {
      "inputs": [
        {
          "internalType": "uint256",
          "name": "itemId",
          "type": "uint256"
        }
      ],
      "name": "createOrder",
      "outputs": [],
      "stateMutability": "payable",
      "type": "function"
    },
    {
      "inputs": [],
      "name": "orderCount",
      "outputs": [
        {
          "internalType": "uint256",
          "name": "",
          "type": "uint256"
        }
      ],
      "stateMutability": "view",
      "type": "function"
    },
    {
      "inputs": [
        {
          "internalType": "uint256",
          "name": "",
          "type": "uint256"
        }
      ],
      "name": "orders",
      "outputs": [
        {
          "internalType": "uint256",
          "name": "itemId",
          "type": "uint256"
        },
        {
          "internalType": "address",
          "name": "buyer",
          "type": "address"
        },
        {
          "internalType": "uint256",
          "name": "amount",
          "type": "uint256"
        },
        {
          "internalType": "bool",
          "name": "delivered",
          "type": "bool"
        },
        {
          "internalType": "bool",
          "name": "paidOut",
          "type": "bool"
        }
      ],
      "stateMutability": "view",
      "type": "function"
    }
  ],
  "bytecode": "0x608060405234801561001057600080fd5b50604051610c8c380380610c8c833981810160405281019061003291906100db565b806000806101000a81548173ffffffffffffffffffffffffffffffffffffffff021916908373ffffffffffffffffffffffffffffffffffffffff16021790555050610108565b600080fd5b600073ffffffffffffffffffffffffffffffffffffffff82169050919050565b60006100a88261007d565b9050919050565b6100b88161009d565b81146100c357600080fd5b50565b6000815190506100d5816100af565b92915050565b6000602082840312156100f1576100f0610078565b5b60006100ff848285016100c6565b91505092915050565b610b75806101176000396000f3fe60806040526004361061003f5760003560e01c80632453ffa814610044578063a85c38ef1461006f578063f8ad8cd7146100b0578063fd84cb97146100cc575b600080fd5b34801561005057600080fd5b506100596100f5565b60405161006691906105bb565b60405180910390f35b34801561007b57600080fd5b5061009660048036038101906100919190610616565b6100fb565b6040516100a795949392919061069f565b60405180910390f35b6100ca60048036038101906100c59190610616565b61016b565b005b3480156100d857600080fd5b506100f360048036038101906100ee9190610616565b6103b5565b005b60025481565b60016020528060005260406000206000915090508060000154908060010160009054906101000a900473ffffffffffffffffffffffffffffffffffffffff16908060020154908060030160009054906101000a900460ff16908060030160019054906101000a900460ff16905085565b60008060008060008060009054906101000a900473ffffffffffffffffffffffffffffffffffffffff1673ffffffffffffffffffffffffffffffffffffffff1663bfb231d2876040518263ffffffff1660e01b81526004016101cd91906105bb565b600060405180830381865afa1580156101ea573d6000803e3d6000fd5b505050506040513d6000823e3d601f19601f8201168201806040525081019061021391906108c0565b945094509450945094508061025d576040517f08c379a0000000000000000000000000000000000000000000000000000000008152600401610254906109d0565b60405180910390fd5b82341461029f576040517f08c379a000000000000000000000000000000000000000000000000000000000815260040161029690610a3c565b60405180910390fd5b6040518060a001604052808781526020013373ffffffffffffffffffffffffffffffffffffffff168152602001348152602001600015158152602001600015158152506001600060025481526020019081526020016000206000820151816000015560208201518160010160006101000a81548173ffffffffffffffffffffffffffffffffffffffff021916908373ffffffffffffffffffffffffffffffffffffffff1602179055506040820151816002015560608201518160030160006101000a81548160ff02191690831515021790555060808201518160030160016101000a81548160ff021916908315150217905550905050600260008154809291906103a890610a8b565b9190505550505050505050565b60006001600083815260200190815260200160002090508060010160009054906101000a900473ffffffffffffffffffffffffffffffffffffffff1673ffffffffffffffffffffffffffffffffffffffff163373ffffffffffffffffffffffffffffffffffffffff161461045e576040517f08c379a000000000000000000000000000000000000000000000000000000000815260040161045590610b1f565b60405180910390fd5b60018160030160006101000a81548160ff02191690831515021790555060008060008060008060009054906101000a900473ffffffffffffffffffffffffffffffffffffffff1673ffffffffffffffffffffffffffffffffffffffff1663bfb231d287600001546040518263ffffffff1660e01b81526004016104e191906105bb565b600060405180830381865afa1580156104fe573d6000803e3d6000fd5b505050506040513d6000823e3d601f19601f8201168201806040525081019061052791906108c0565b945094509450945094508173ffffffffffffffffffffffffffffffffffffffff166108fc87600201549081150290604051600060405180830381858888f1935050505015801561057b573d6000803e3d6000fd5b5060018660030160016101000a81548160ff02191690831515021790555050505050505050565b6000819050919050565b6105b5816105a2565b82525050565b60006020820190506105d060008301846105ac565b92915050565b6000604051905090565b600080fd5b600080fd5b6105f3816105a2565b81146105fe57600080fd5b50565b600081359050610610816105ea565b92915050565b60006020828403121561062c5761062b6105e0565b5b600061063a84828501610601565b91505092915050565b600073ffffffffffffffffffffffffffffffffffffffff82169050919050565b600061066e82610643565b9050919050565b61067e81610663565b82525050565b60008115159050919050565b61069981610684565b82525050565b600060a0820190506106b460008301886105ac565b6106c16020830187610675565b6106ce60408301866105ac565b6106db6060830185610690565b6106e86080830184610690565b9695505050505050565b600080fd5b600080fd5b6000601f19601f8301169050919050565b7f4e487b7100000000000000000000000000000000000000000000000000000000600052604160045260246000fd5b610745826106fc565b810181811067ffffffffffffffff821117156107645761076361070d565b5b80604052505050565b60006107776105d6565b9050610783828261073c565b919050565b600067ffffffffffffffff8211156107a3576107a261070d565b5b6107ac826106fc565b9050602081019050919050565b60005b838110156107d75780820151818401526020810190506107bc565b60008484015250505050565b60006107f66107f184610788565b61076d565b905082815260208101848484011115610812576108116106f7565b5b61081d8482856107b9565b509392505050565b600082601f83011261083a576108396106f2565b5b815161084a8482602086016107e3565b91505092915050565b600081519050610862816105ea565b92915050565b61087181610663565b811461087c57600080fd5b50565b60008151905061088e81610868565b92915050565b61089d81610684565b81146108a857600080fd5b50565b6000815190506108ba81610894565b92915050565b600080600080600060a086880312156108dc576108db6105e0565b5b600086015167ffffffffffffffff8111156108fa576108f96105e5565b5b61090688828901610825565b955050602086015167ffffffffffffffff811115610927576109266105e5565b5b61093388828901610825565b945050604061094488828901610853565b93505060606109558882890161087f565b9250506080610966888289016108ab565b9150509295509295909350565b600082825260208201905092915050565b7f4974656d206e6f7420617070726f766564000000000000000000000000000000600082015250565b60006109ba601183610973565b91506109c582610984565b602082019050919050565b600060208201905081810360008301526109e9816109ad565b9050919050565b7f496e636f727265637420616d6f756e7400000000000000000000000000000000600082015250565b6000610a26601083610973565b9150610a31826109f0565b602082019050919050565b60006020820190508181036000830152610a5581610a19565b9050919050565b7f4e487b7100000000000000000000000000000000000000000000000000000000600052601160045260246000fd5b6000610a96826105a2565b91507fffffffffffffffffffffffffffffffffffffffffffffffffffffffffffffffff8203610ac857610ac7610a5c565b5b600182019050919050565b7f4f6e6c7920627579657200000000000000000000000000000000000000000000600082015250565b6000610b09600a83610973565b9150610b1482610ad3565b602082019050919050565b60006020820190508181036000830152610b3881610afc565b905091905056fea2646970667358221220f3899aea098a216d76a5a5eda1b84f412034cdc2560767b0e6751893856a353564736f6c634300081c0033",
  "linkReferences": {},
  "deployedLinkReferences": {}
}