{
  "_format": "hh-sol-artifact-1",
  "contractName": "Procurement",
  "sourceName": "contracts/Procurement.sol",
  "abi": [
    {
      "inputs": [
        {
          "internalType": "address",
          "name": "registryAddress",
          "type": "address"
        }
      ],
      "stateMutability": "nonpayable",
      "type": "constructor"
    },
    {
      "inputs": [
        {
          "internalType": "uint256",
          "name": "itemId",
          "type": "uint256"
        }
      ],
      "name": "approveItem",
      "outputs": [],
      "stateMutability": "nonpayable",
      "type": "function"
    },
    {
      "inputs": [],
      "name": "itemCount",
      "outputs": [
        {
          "internalType": "uint256",
          "name": "",
          "type": "uint256"
        }
      ],
      "stateMutability": "view",
      "type": "function"
    },
    {
      "inputs": [
        {
          "internalType": "uint256",
          "name": "",
          "type": "uint256"
        }
      ],
      "name": "items",
      "outputs": [
        {
          "internalType": "string",
          "name": "brand",
          "type": "string"
        },
        {
          "internalType": "string",
          "name": "name",
          "type": "string"
        },
        {
          "internalType": "uint256",
          "name": "price",
          "type": "uint256"
        },
        {
          "internalType": "address",
          "name": "seller",
          "type": "address"
        },
        {
          "internalType": "bool",
          "name": "approved",
          "type": "bool"
        }
      ],
      "stateMutability": "view",
      "type": "function"
    },
    {
      "inputs": [
        {
          "internalType": "string",
          "name": "brand",
          "type": "string"
        },
        {
          "internalType": "string",
          "name": "name",
          "type": "string"
        },
        {
          "internalType": "uint256",
          "name": "price",
          "type": "uint256"
        }
      ],
      "name": "submitItem",
      "outputs": [],
      "stateMutability": "nonpayable",
      "type": "function"
    }
  ],
  "bytecode": "0x608060405234801561001057600080fd5b506040516110c83803806110c8833981810160405281019061003291906100db565b806000806101000a81548173ffffffffffffffffffffffffffffffffffffffff021916908373ffffffffffffffffffffffffffffffffffffffff16021790555050610108565b600080fd5b600073ffffffffffffffffffffffffffffffffffffffff82169050919050565b60006100a88261007d565b9050919050565b6100b88161009d565b81146100c357600080fd5b50565b6000815190506100d5816100af565b92915050565b6000602082840312156100f1576100f0610078565b5b60006100ff848285016100c6565b91505092915050565b610fb1806101176000396000f3fe608060405234801561001057600080fd5b506004361061004c5760003560e01c80636bfb0d0114610051578063bfb231d21461006f578063cec9b318146100a3578063d283c850146100bf575b600080fd5b6100596100db565b604051610066919061065e565b60405180910390f35b610089600480360381019061008491906106b9565b6100e1565b60405161009a9594939291906107d2565b60405180910390f35b6100bd60048036038101906100b89190610968565b610254565b005b6100d960048036038101906100d491906106b9565b610518565b005b60025481565b600160205280600052604060002060009150905080600001805461010490610a22565b80601f016020809104026020016040519081016040528092919081815260200182805461013090610a22565b801561017d5780601f106101525761010080835404028352916020019161017d565b820191906000526020600020905b81548152906001019060200180831161016057829003601f168201915b50505050509080600101805461019290610a22565b80601f01602080910402602001604051908101604052809291908181526020018280546101be90610a22565b801561020b5780601f106101e05761010080835404028352916020019161020b565b820191906000526020600020905b8154815290600101906020018083116101ee57829003601f168201915b5050505050908060020154908060030160009054906101000a900473ffffffffffffffffffffffffffffffffffffffff16908060030160149054906101000a900460ff16905085565b60008054906101000a900473ffffffffffffffffffffffffffffffffffffffff1673ffffffffffffffffffffffffffffffffffffffff1663377c460d336040518263ffffffff1660e01b81526004016102ad9190610a53565b602060405180830381865afa1580156102ca573d6000803e3d6000fd5b505050506040513d601f19601f820116820180604052508101906102ee9190610a9a565b61032d576040517f08c379a000000000000000000000000000000000000000000000000000000000815260040161032490610b13565b60405180910390fd5b60008054906101000a900473ffffffffffffffffffffffffffffffffffffffff1673ffffffffffffffffffffffffffffffffffffffff1663c900094f846040518263ffffffff1660e01b81526004016103869190610b33565b602060405180830381865afa1580156103a3573d6000803e3d6000fd5b505050506040513d601f19601f820116820180604052508101906103c79190610a9a565b610406576040517f08c379a00000000000000000000000000000000000000000000000000000000081526004016103fd90610ba1565b60405180910390fd5b6040518060a001604052808481526020018381526020018281526020013373ffffffffffffffffffffffffffffffffffffffff1681526020016000151581525060016000600254815260200190815260200160002060008201518160000190816104709190610d6d565b5060208201518160010190816104869190610d6d565b506040820151816002015560608201518160030160006101000a81548173ffffffffffffffffffffffffffffffffffffffff021916908373ffffffffffffffffffffffffffffffffffffffff16021790555060808201518160030160146101000a81548160ff0219169083151502179055509050506002600081548092919061050e90610e6e565b9190505550505050565b60008054906101000a900473ffffffffffffffffffffffffffffffffffffffff1673ffffffffffffffffffffffffffffffffffffffff1663f851a4406040518163ffffffff1660e01b8152600401602060405180830381865afa158015610583573d6000803e3d6000fd5b505050506040513d601f19601f820116820180604052508101906105a79190610ee2565b73ffffffffffffffffffffffffffffffffffffffff163373ffffffffffffffffffffffffffffffffffffffff1614610614576040517f08c379a000000000000000000000000000000000000000000000000000000000815260040161060b90610f5b565b60405180910390fd5b600180600083815260200190815260200160002060030160146101000a81548160ff02191690831515021790555050565b6000819050919050565b61065881610645565b82525050565b6000602082019050610673600083018461064f565b92915050565b6000604051905090565b600080fd5b600080fd5b61069681610645565b81146106a157600080fd5b50565b6000813590506106b38161068d565b92915050565b6000602082840312156106cf576106ce610683565b5b60006106dd848285016106a4565b91505092915050565b600081519050919050565b600082825260208201905092915050565b60005b83811015610720578082015181840152602081019050610705565b60008484015250505050565b6000601f19601f8301169050919050565b6000610748826106e6565b61075281856106f1565b9350610762818560208601610702565b61076b8161072c565b840191505092915050565b600073ffffffffffffffffffffffffffffffffffffffff82169050919050565b60006107a182610776565b9050919050565b6107b181610796565b82525050565b60008115159050919050565b6107cc816107b7565b82525050565b600060a08201905081810360008301526107ec818861073d565b90508181036020830152610800818761073d565b905061080f604083018661064f565b61081c60608301856107a8565b61082960808301846107c3565b9695505050505050565b600080fd5b600080fd5b7f4e487b7100000000000000000000000000000000000000000000000000000000600052604160045260246000fd5b6108758261072c565b810181811067ffffffffffffffff821117156108945761089361083d565b5b80604052505050565b60006108a7610679565b90506108b3828261086c565b919050565b600067ffffffffffffffff8211156108d3576108d261083d565b5b6108dc8261072c565b9050602081019050919050565b82818337600083830152505050565b600061090b610906846108b8565b61089d565b90508281526020810184848401111561092757610926610838565b5b6109328482856108e9565b509392505050565b600082601f83011261094f5761094e610833565b5b813561095f8482602086016108f8565b91505092915050565b60008060006060848603121561098157610980610683565b5b600084013567ffffffffffffffff81111561099f5761099e610688565b5b6109ab8682870161093a565b935050602084013567ffffffffffffffff8111156109cc576109cb610688565b5b6109d88682870161093a565b92505060406109e9868287016106a4565b9150509250925092565b7f4e487b7100000000000000000000000000000000000000000000000000000000600052602260045260246000fd5b60006002820490506001821680610a3a57607f821691505b602082108103610a4d57610a4c6109f3565b5b50919050565b6000602082019050610a6860008301846107a8565b92915050565b610a77816107b7565b8114610a8257600080fd5b50565b600081519050610a9481610a6e565b92915050565b600060208284031215610ab057610aaf610683565b5b6000610abe84828501610a85565b91505092915050565b7f53656c6c6572206e6f7420766572696669656400000000000000000000000000600082015250565b6000610afd6013836106f1565b9150610b0882610ac7565b602082019050919050565b60006020820190508181036000830152610b2c81610af0565b9050919050565b60006020820190508181036000830152610b4d818461073d565b905092915050565b7f4272616e64206e6f742076657269666965640000000000000000000000000000600082015250565b6000610b8b6012836106f1565b9150610b9682610b55565b602082019050919050565b60006020820190508181036000830152610bba81610b7e565b9050919050565b60008190508160005260206000209050919050565b60006020601f8301049050919050565b600082821b905092915050565b600060088302610c237fffffffffffffffffffffffffffffffffffffffffffffffffffffffffffffffff82610be6565b610c2d8683610be6565b95508019841693508086168417925050509392505050565b6000819050919050565b6000610c6a610c65610c6084610645565b610c45565b610645565b9050919050565b6000819050919050565b610c8483610c4f565b610c98610c9082610c71565b848454610bf3565b825550505050565b600090565b610cad610ca0565b610cb8818484610c7b565b505050565b5b81811015610cdc57610cd1600082610ca5565b600181019050610cbe565b5050565b601f821115610d2157610cf281610bc1565b610cfb84610bd6565b81016020851015610d0a578190505b610d1e610d1685610bd6565b830182610cbd565b50505b505050565b600082821c905092915050565b6000610d4460001984600802610d26565b1980831691505092915050565b6000610d5d8383610d33565b9150826002028217905092915050565b610d76826106e6565b67ffffffffffffffff811115610d8f57610d8e61083d565b5b610d998254610a22565b610da4828285610ce0565b600060209050601f831160018114610dd75760008415610dc5578287015190505b610dcf8582610d51565b865550610e37565b601f198416610de586610bc1565b60005b82811015610e0d57848901518255600182019150602085019450602081019050610de8565b86831015610e2a5784890151610e26601f891682610d33565b8355505b6001600288020188555050505b505050505050565b7f4e487b7100000000000000000000000000000000000000000000000000000000600052601160045260246000fd5b6000610e7982610645565b91507fffffffffffffffffffffffffffffffffffffffffffffffffffffffffffffffff8203610eab57610eaa610e3f565b5b600182019050919050565b610ebf81610796565b8114610eca57600080fd5b50565b600081519050610edc81610eb6565b92915050565b600060208284031215610ef857610ef7610683565b5b6000610f0684828501610ecd565b91505092915050565b7f4e6f742061646d696e0000000000000000000000000000000000000000000000600082015250565b6000610f456009836106f1565b9150610f5082610f0f565b602082019050919050565b60006020820190508181036000830152610f7481610f38565b905091905056fea2646970667358221220adab0762c4f2df522d1c1619a633cad6d8594f5c4db81ecdd11cba63f260c01c64736f6c634300081c0033",
  "linkReferences": {},
  "deployedLinkReferences": {}
}