{
  "_format": "hh-sol-artifact-1",
  "contractName": "Procurement",
  "sourceName": "contracts/Procurement.sol",
  "abi": [
    {
      "inputs": [
        {
          "internalType": "address",
          "name": "registryAddress",
          "type": "address"
        }
      ],
      "stateMutability": "nonpayable",
      "type": "constructor"
    },
    {
      "inputs": [
        {
          "internalType": "uint256",
          "name": "",
          "type": "uint256"
        }
      ],
      "name": "allSellers",
      "outputs": [
        {
          "internalType": "address",
          "name": "",
          "type": "address"
        }
      ],
      "stateMutability": "view",
      "type": "function"
    },
    {
      "inputs": [
        {
          "internalType": "string",
          "name": "brand",
          "type": "string"
        },
        {
          "internalType": "string",
          "name": "name",
          "type": "string"
        }
      ],
      "name": "approveItem",
      "outputs": [],
      "stateMutability": "nonpayable",
      "type": "function"
    },
    {
      "inputs": [
        {
          "internalType": "address",
          "name": "seller",
          "type": "address"
        },
        {
          "internalType": "uint256",
          "name": "itemId",
          "type": "uint256"
        },
        {
          "internalType": "uint256",
          "name": "quantity",
          "type": "uint256"
        }
      ],
      "name": "consumeSellerQuantity",
      "outputs": [],
      "stateMutability": "nonpayable",
      "type": "function"
    },
    {
      "inputs": [],
      "name": "escrow",
      "outputs": [
        {
          "internalType": "address",
          "name": "",
          "type": "address"
        }
      ],
      "stateMutability": "view",
      "type": "function"
    },
    {
      "inputs": [],
      "name": "getAllListings",
      "outputs": [
        {
          "internalType": "address[]",
          "name": "sellers",
          "type": "address[]"
        },
        {
          "internalType": "uint256[]",
          "name": "itemIds",
          "type": "uint256[]"
        },
        {
          "internalType": "uint256[]",
          "name": "prices",
          "type": "uint256[]"
        },
        {
          "internalType": "uint256[]",
          "name": "quantities",
          "type": "uint256[]"
        }
      ],
      "stateMutability": "view",
      "type": "function"
    },
    {
      "inputs": [
        {
          "internalType": "address",
          "name": "",
          "type": "address"
        }
      ],
      "name": "isKnownSeller",
      "outputs": [
        {
          "internalType": "bool",
          "name": "",
          "type": "bool"
        }
      ],
      "stateMutability": "view",
      "type": "function"
    },
    {
      "inputs": [],
      "name": "itemCount",
      "outputs": [
        {
          "internalType": "uint256",
          "name": "",
          "type": "uint256"
        }
      ],
      "stateMutability": "view",
      "type": "function"
    },
    {
      "inputs": [
        {
          "internalType": "uint256",
          "name": "",
          "type": "uint256"
        }
      ],
      "name": "items",
      "outputs": [
        {
          "internalType": "string",
          "name": "brand",
          "type": "string"
        },
        {
          "internalType": "string",
          "name": "name",
          "type": "string"
        },
        {
          "internalType": "uint256",
          "name": "total_quantity",
          "type": "uint256"
        }
      ],
      "stateMutability": "view",
      "type": "function"
    },
    {
      "inputs": [],
      "name": "registry",
      "outputs": [
        {
          "internalType": "contract Registry",
          "name": "",
          "type": "address"
        }
      ],
      "stateMutability": "view",
      "type": "function"
    },
    {
      "inputs": [
        {
          "internalType": "address",
          "name": "",
          "type": "address"
        },
        {
          "internalType": "uint256",
          "name": "",
          "type": "uint256"
        }
      ],
      "name": "sellingItems",
      "outputs": [
        {
          "internalType": "uint256",
          "name": "itemId",
          "type": "uint256"
        },
        {
          "internalType": "uint256",
          "name": "selling_price",
          "type": "uint256"
        },
        {
          "internalType": "uint256",
          "name": "selling_quantity",
          "type": "uint256"
        }
      ],
      "stateMutability": "view",
      "type": "function"
    },
    {
      "inputs": [
        {
          "internalType": "address",
          "name": "_escrow",
          "type": "address"
        }
      ],
      "name": "setEscrow",
      "outputs": [],
      "stateMutability": "nonpayable",
      "type": "function"
    },
    {
      "inputs": [
        {
          "internalType": "uint256",
          "name": "itemId",
          "type": "uint256"
        },
        {
          "internalType": "uint256",
          "name": "selling_price",
          "type": "uint256"
        },
        {
          "internalType": "uint256",
          "name": "selling_quantity",
          "type": "uint256"
        }
      ],
      "name": "submitItem",
      "outputs": [],
      "stateMutability": "nonpayable",
      "type": "function"
    }
  ],
  "bytecode": "0x60806040523480156200001157600080fd5b506040516200234b3803806200234b8339818101604052810190620000379190620000e8565b806000806101000a81548173ffffffffffffffffffffffffffffffffffffffff021916908373ffffffffffffffffffffffffffffffffffffffff160217905550506200011a565b600080fd5b600073ffffffffffffffffffffffffffffffffffffffff82169050919050565b6000620000b08262000083565b9050919050565b620000c281620000a3565b8114620000ce57600080fd5b50565b600081519050620000e281620000b7565b92915050565b6000602082840312156200010157620001006200007e565b5b60006200011184828501620000d1565b91505092915050565b612221806200012a6000396000f3fe608060405234801561001057600080fd5b50600436106100b45760003560e01c8063ae73ccec11610071578063ae73ccec14610179578063bfb231d21461019a578063c10c3546146101cc578063c1932586146101e8578063e2fdcc171461021a578063ed4a4a2414610238576100b4565b80632e2f5f18146100b9578063649a2580146100e95780636bfb0d01146101055780637b10399914610123578063aa2c0d5d14610141578063ac710ac81461015d575b600080fd5b6100d360048036038101906100ce9190611270565b610268565b6040516100e091906112b8565b60405180910390f35b61010360048036038101906100fe9190611309565b610288565b005b61010d61060d565b60405161011a919061136b565b60405180910390f35b61012b610613565b60405161013891906113e5565b60405180910390f35b61015b60048036038101906101569190611546565b610637565b005b610177600480360381019061017291906115be565b610892565b005b610181610a98565b604051610191949392919061178d565b60405180910390f35b6101b460048036038101906101af91906117ee565b610e79565b6040516101c39392919061189a565b60405180910390f35b6101e660048036038101906101e19190611270565b610fb3565b005b61020260048036038101906101fd91906118df565b611162565b6040516102119392919061191f565b60405180910390f35b610222611199565b60405161022f9190611965565b60405180910390f35b610252600480360381019061024d91906117ee565b6111bf565b60405161025f9190611965565b60405180910390f35b60066020528060005260406000206000915054906101000a900460ff1681565b60008054906101000a900473ffffffffffffffffffffffffffffffffffffffff1673ffffffffffffffffffffffffffffffffffffffff1663377c460d336040518263ffffffff1660e01b81526004016102e19190611965565b602060405180830381865afa1580156102fe573d6000803e3d6000fd5b505050506040513d601f19601f8201168201806040525081019061032291906119ac565b610361576040517f08c379a000000000000000000000000000000000000000000000000000000000815260040161035890611a25565b60405180910390fd5b60035483106103a5576040517f08c379a000000000000000000000000000000000000000000000000000000000815260040161039c90611a91565b60405180910390fd5b600082116103e8576040517f08c379a00000000000000000000000000000000000000000000000000000000081526004016103df90611afd565b60405180910390fd5b6000811161042b576040517f08c379a000000000000000000000000000000000000000000000000000000000815260040161042290611b69565b60405180910390fd5b600660003373ffffffffffffffffffffffffffffffffffffffff1673ffffffffffffffffffffffffffffffffffffffff16815260200190815260200160002060009054906101000a900460ff16610538576001600660003373ffffffffffffffffffffffffffffffffffffffff1673ffffffffffffffffffffffffffffffffffffffff16815260200190815260200160002060006101000a81548160ff0219169083151502179055506005339080600181540180825580915050600190039060005260206000200160009091909190916101000a81548173ffffffffffffffffffffffffffffffffffffffff021916908373ffffffffffffffffffffffffffffffffffffffff1602179055505b6000600460003373ffffffffffffffffffffffffffffffffffffffff1673ffffffffffffffffffffffffffffffffffffffff1681526020019081526020016000206000858152602001908152602001600020905060006002600086815260200190815260200160002090506000826002015411156105d05781600201548160020160008282546105c89190611bb8565b925050819055505b848260000181905550838260010181905550828260020181905550828160020160008282546105ff9190611bec565b925050819055505050505050565b60035481565b60008054906101000a900473ffffffffffffffffffffffffffffffffffffffff1681565b60008054906101000a900473ffffffffffffffffffffffffffffffffffffffff1673ffffffffffffffffffffffffffffffffffffffff1663f851a4406040518163ffffffff1660e01b8152600401602060405180830381865afa1580156106a2573d6000803e3d6000fd5b505050506040513d601f19601f820116820180604052508101906106c69190611c35565b73ffffffffffffffffffffffffffffffffffffffff163373ffffffffffffffffffffffffffffffffffffffff1614610733576040517f08c379a000000000000000000000000000000000000000000000000000000000815260040161072a90611cae565b60405180910390fd5b60008054906101000a900473ffffffffffffffffffffffffffffffffffffffff1673ffffffffffffffffffffffffffffffffffffffff1663c900094f836040518263ffffffff1660e01b815260040161078c9190611cce565b602060405180830381865afa1580156107a9573d6000803e3d6000fd5b505050506040513d601f19601f820116820180604052508101906107cd91906119ac565b61080c576040517f08c379a000000000000000000000000000000000000000000000000000000000815260040161080390611d3c565b60405180910390fd5b6040518060600160405280838152602001828152602001600081525060026000600354815260200190815260200160002060008201518160000190816108529190611f5e565b5060208201518160010190816108689190611f5e565b50604082015181600201559050506003600081548092919061088990612030565b91905055505050565b600160009054906101000a900473ffffffffffffffffffffffffffffffffffffffff1673ffffffffffffffffffffffffffffffffffffffff163373ffffffffffffffffffffffffffffffffffffffff1614610922576040517f08c379a0000000000000000000000000000000000000000000000000000000008152600401610919906120c4565b60405180910390fd5b60008111610965576040517f08c379a000000000000000000000000000000000000000000000000000000000815260040161095c90611b69565b60405180910390fd5b60035482106109a9576040517f08c379a00000000000000000000000000000000000000000000000000000000081526004016109a090611a91565b60405180910390fd5b6000600460008573ffffffffffffffffffffffffffffffffffffffff1673ffffffffffffffffffffffffffffffffffffffff1681526020019081526020016000206000848152602001908152602001600020905060006002600085815260200190815260200160002090508282600201541015610a5b576040517f08c379a0000000000000000000000000000000000000000000000000000000008152600401610a5290612130565b60405180910390fd5b82826002016000828254610a6f9190611bb8565b9250508190555082816002016000828254610a8a9190611bb8565b925050819055505050505050565b606080606080600060058054905090506000805b82811015610b9757600060058281548110610aca57610ac9612150565b5b9060005260206000200160009054906101000a900473ffffffffffffffffffffffffffffffffffffffff16905060005b600354811015610b82576000600460008473ffffffffffffffffffffffffffffffffffffffff1673ffffffffffffffffffffffffffffffffffffffff1681526020019081526020016000206000838152602001908152602001600020600201541115610b6f578380610b6b90612030565b9450505b8080610b7a90612030565b915050610afa565b50508080610b8f90612030565b915050610aac565b508067ffffffffffffffff811115610bb257610bb161141b565b5b604051908082528060200260200182016040528015610be05781602001602082028036833780820191505090505b5095508067ffffffffffffffff811115610bfd57610bfc61141b565b5b604051908082528060200260200182016040528015610c2b5781602001602082028036833780820191505090505b5094508067ffffffffffffffff811115610c4857610c4761141b565b5b604051908082528060200260200182016040528015610c765781602001602082028036833780820191505090505b5093508067ffffffffffffffff811115610c9357610c9261141b565b5b604051908082528060200260200182016040528015610cc15781602001602082028036833780820191505090505b5092506000805b83811015610e6f57600060058281548110610ce657610ce5612150565b5b9060005260206000200160009054906101000a900473ffffffffffffffffffffffffffffffffffffffff16905060005b600354811015610e5a576000600460008473ffffffffffffffffffffffffffffffffffffffff1673ffffffffffffffffffffffffffffffffffffffff16815260200190815260200160002060008381526020019081526020016000209050600081600201541115610e4657828b8681518110610d9557610d94612150565b5b602002602001019073ffffffffffffffffffffffffffffffffffffffff16908173ffffffffffffffffffffffffffffffffffffffff1681525050818a8681518110610de357610de2612150565b5b6020026020010181815250508060010154898681518110610e0757610e06612150565b5b6020026020010181815250508060020154888681518110610e2b57610e2a612150565b5b6020026020010181815250508480610e4290612030565b9550505b508080610e5290612030565b915050610d16565b50508080610e6790612030565b915050610cc8565b5050505090919293565b6002602052806000526040600020600091509050806000018054610e9c90611d8b565b80601f0160208091040260200160405190810160405280929190818152602001828054610ec890611d8b565b8015610f155780601f10610eea57610100808354040283529160200191610f15565b820191906000526020600020905b815481529060010190602001808311610ef857829003601f168201915b505050505090806001018054610f2a90611d8b565b80601f0160208091040260200160405190810160405280929190818152602001828054610f5690611d8b565b8015610fa35780601f10610f7857610100808354040283529160200191610fa3565b820191906000526020600020905b815481529060010190602001808311610f8657829003601f168201915b5050505050908060020154905083565b60008054906101000a900473ffffffffffffffffffffffffffffffffffffffff1673ffffffffffffffffffffffffffffffffffffffff1663f851a4406040518163ffffffff1660e01b8152600401602060405180830381865afa15801561101e573d6000803e3d6000fd5b505050506040513d601f19601f820116820180604052508101906110429190611c35565b73ffffffffffffffffffffffffffffffffffffffff163373ffffffffffffffffffffffffffffffffffffffff16146110af576040517f08c379a00000000000000000000000000000000000000000000000000000000081526004016110a690611cae565b60405180910390fd5b600073ffffffffffffffffffffffffffffffffffffffff168173ffffffffffffffffffffffffffffffffffffffff160361111e576040517f08c379a0000000000000000000000000000000000000000000000000000000008152600401611115906121cb565b60405180910390fd5b80600160006101000a81548173ffffffffffffffffffffffffffffffffffffffff021916908373ffffffffffffffffffffffffffffffffffffffff16021790555050565b6004602052816000526040600020602052806000526040600020600091509150508060000154908060010154908060020154905083565b600160009054906101000a900473ffffffffffffffffffffffffffffffffffffffff1681565b600581815481106111cf57600080fd5b906000526020600020016000915054906101000a900473ffffffffffffffffffffffffffffffffffffffff1681565b6000604051905090565b600080fd5b600080fd5b600073ffffffffffffffffffffffffffffffffffffffff82169050919050565b600061123d82611212565b9050919050565b61124d81611232565b811461125857600080fd5b50565b60008135905061126a81611244565b92915050565b60006020828403121561128657611285611208565b5b60006112948482850161125b565b91505092915050565b60008115159050919050565b6112b28161129d565b82525050565b60006020820190506112cd60008301846112a9565b92915050565b6000819050919050565b6112e6816112d3565b81146112f157600080fd5b50565b600081359050611303816112dd565b92915050565b60008060006060848603121561132257611321611208565b5b6000611330868287016112f4565b9350506020611341868287016112f4565b9250506040611352868287016112f4565b9150509250925092565b611365816112d3565b82525050565b6000602082019050611380600083018461135c565b92915050565b6000819050919050565b60006113ab6113a66113a184611212565b611386565b611212565b9050919050565b60006113bd82611390565b9050919050565b60006113cf826113b2565b9050919050565b6113df816113c4565b82525050565b60006020820190506113fa60008301846113d6565b92915050565b600080fd5b600080fd5b6000601f19601f8301169050919050565b7f4e487b7100000000000000000000000000000000000000000000000000000000600052604160045260246000fd5b6114538261140a565b810181811067ffffffffffffffff821117156114725761147161141b565b5b80604052505050565b60006114856111fe565b9050611491828261144a565b919050565b600067ffffffffffffffff8211156114b1576114b061141b565b5b6114ba8261140a565b9050602081019050919050565b82818337600083830152505050565b60006114e96114e484611496565b61147b565b90508281526020810184848401111561150557611504611405565b5b6115108482856114c7565b509392505050565b600082601f83011261152d5761152c611400565b5b813561153d8482602086016114d6565b91505092915050565b6000806040838503121561155d5761155c611208565b5b600083013567ffffffffffffffff81111561157b5761157a61120d565b5b61158785828601611518565b925050602083013567ffffffffffffffff8111156115a8576115a761120d565b5b6115b485828601611518565b9150509250929050565b6000806000606084860312156115d7576115d6611208565b5b60006115e58682870161125b565b93505060206115f6868287016112f4565b9250506040611607868287016112f4565b9150509250925092565b600081519050919050565b600082825260208201905092915050565b6000819050602082019050919050565b61164681611232565b82525050565b6000611658838361163d565b60208301905092915050565b6000602082019050919050565b600061167c82611611565b611686818561161c565b93506116918361162d565b8060005b838110156116c25781516116a9888261164c565b97506116b483611664565b925050600181019050611695565b5085935050505092915050565b600081519050919050565b600082825260208201905092915050565b6000819050602082019050919050565b611704816112d3565b82525050565b600061171683836116fb565b60208301905092915050565b6000602082019050919050565b600061173a826116cf565b61174481856116da565b935061174f836116eb565b8060005b83811015611780578151611767888261170a565b975061177283611722565b925050600181019050611753565b5085935050505092915050565b600060808201905081810360008301526117a78187611671565b905081810360208301526117bb818661172f565b905081810360408301526117cf818561172f565b905081810360608301526117e3818461172f565b905095945050505050565b60006020828403121561180457611803611208565b5b6000611812848285016112f4565b91505092915050565b600081519050919050565b600082825260208201905092915050565b60005b8381101561185557808201518184015260208101905061183a565b60008484015250505050565b600061186c8261181b565b6118768185611826565b9350611886818560208601611837565b61188f8161140a565b840191505092915050565b600060608201905081810360008301526118b48186611861565b905081810360208301526118c88185611861565b90506118d7604083018461135c565b949350505050565b600080604083850312156118f6576118f5611208565b5b60006119048582860161125b565b9250506020611915858286016112f4565b9150509250929050565b6000606082019050611934600083018661135c565b611941602083018561135c565b61194e604083018461135c565b949350505050565b61195f81611232565b82525050565b600060208201905061197a6000830184611956565b92915050565b6119898161129d565b811461199457600080fd5b50565b6000815190506119a681611980565b92915050565b6000602082840312156119c2576119c1611208565b5b60006119d084828501611997565b91505092915050565b7f53656c6c6572206e6f7420766572696669656400000000000000000000000000600082015250565b6000611a0f601383611826565b9150611a1a826119d9565b602082019050919050565b60006020820190508181036000830152611a3e81611a02565b9050919050565b7f496e76616c6964206974656d4964000000000000000000000000000000000000600082015250565b6000611a7b600e83611826565b9150611a8682611a45565b602082019050919050565b60006020820190508181036000830152611aaa81611a6e565b9050919050565b7f5072696365206d757374206265203e2030000000000000000000000000000000600082015250565b6000611ae7601183611826565b9150611af282611ab1565b602082019050919050565b60006020820190508181036000830152611b1681611ada565b9050919050565b7f5175616e74697479206d757374206265203e2030000000000000000000000000600082015250565b6000611b53601483611826565b9150611b5e82611b1d565b602082019050919050565b60006020820190508181036000830152611b8281611b46565b9050919050565b7f4e487b7100000000000000000000000000000000000000000000000000000000600052601160045260246000fd5b6000611bc3826112d3565b9150611bce836112d3565b9250828203905081811115611be657611be5611b89565b5b92915050565b6000611bf7826112d3565b9150611c02836112d3565b9250828201905080821115611c1a57611c19611b89565b5b92915050565b600081519050611c2f81611244565b92915050565b600060208284031215611c4b57611c4a611208565b5b6000611c5984828501611c20565b91505092915050565b7f4e6f742061646d696e0000000000000000000000000000000000000000000000600082015250565b6000611c98600983611826565b9150611ca382611c62565b602082019050919050565b60006020820190508181036000830152611cc781611c8b565b9050919050565b60006020820190508181036000830152611ce88184611861565b905092915050565b7f4272616e64206e6f742076657269666965640000000000000000000000000000600082015250565b6000611d26601283611826565b9150611d3182611cf0565b602082019050919050565b60006020820190508181036000830152611d5581611d19565b9050919050565b7f4e487b7100000000000000000000000000000000000000000000000000000000600052602260045260246000fd5b60006002820490506001821680611da357607f821691505b602082108103611db657611db5611d5c565b5b50919050565b60008190508160005260206000209050919050565b60006020601f8301049050919050565b600082821b905092915050565b600060088302611e1e7fffffffffffffffffffffffffffffffffffffffffffffffffffffffffffffffff82611de1565b611e288683611de1565b95508019841693508086168417925050509392505050565b6000611e5b611e56611e51846112d3565b611386565b6112d3565b9050919050565b6000819050919050565b611e7583611e40565b611e89611e8182611e62565b848454611dee565b825550505050565b600090565b611e9e611e91565b611ea9818484611e6c565b505050565b5b81811015611ecd57611ec2600082611e96565b600181019050611eaf565b5050565b601f821115611f1257611ee381611dbc565b611eec84611dd1565b81016020851015611efb578190505b611f0f611f0785611dd1565b830182611eae565b50505b505050565b600082821c905092915050565b6000611f3560001984600802611f17565b1980831691505092915050565b6000611f4e8383611f24565b9150826002028217905092915050565b611f678261181b565b67ffffffffffffffff811115611f8057611f7f61141b565b5b611f8a8254611d8b565b611f95828285611ed1565b600060209050601f831160018114611fc85760008415611fb6578287015190505b611fc08582611f42565b865550612028565b601f198416611fd686611dbc565b60005b82811015611ffe57848901518255600182019150602085019450602081019050611fd9565b8683101561201b5784890151612017601f891682611f24565b8355505b6001600288020188555050505b505050505050565b600061203b826112d3565b91507fffffffffffffffffffffffffffffffffffffffffffffffffffffffffffffffff820361206d5761206c611b89565b5b600182019050919050565b7f4f6e6c7920657363726f77000000000000000000000000000000000000000000600082015250565b60006120ae600b83611826565b91506120b982612078565b602082019050919050565b600060208201905081810360008301526120dd816120a1565b9050919050565b7f4e6f7420656e6f756768207175616e74697479206c6973746564000000000000600082015250565b600061211a601a83611826565b9150612125826120e4565b602082019050919050565b600060208201905081810360008301526121498161210d565b9050919050565b7f4e487b7100000000000000000000000000000000000000000000000000000000600052603260045260246000fd5b7f496e76616c696420657363726f77000000000000000000000000000000000000600082015250565b60006121b5600e83611826565b91506121c08261217f565b602082019050919050565b600060208201905081810360008301526121e4816121a8565b905091905056fea2646970667358221220f7ce55287097d111f6b259bc59fafef419dfafd4f3e14b5dfe81093835ff6cc664736f6c63430008130033",
  "linkReferences": {},
  "deployedLinkReferences": {}
}