{
  "_format": "hh-sol-artifact-1",
  "contractName": "Registry",
  "sourceName": "contracts/Registry.sol",
  "abi": [
    {
      "inputs": [],
      "stateMutability": "nonpayable",
      "type": "constructor"
    },
    {
      "inputs": [],
      "name": "admin",
      "outputs": [
        {
          "internalType": "address",
          "name": "",
          "type": "address"
        }
      ],
      "stateMutability": "view",
      "type": "function"
    },
    {
      "inputs": [
        {
          "internalType": "string",
          "name": "",
          "type": "string"
        }
      ],
      "name": "brands",
      "outputs": [
        {
          "internalType": "bool",
          "name": "isVerified",
          "type": "bool"
        }
      ],
      "stateMutability": "view",
      "type": "function"
    },
    {
      "inputs": [
        {
          "internalType": "string",
          "name": "brandName",
          "type": "string"
        }
      ],
      "name": "isBrandVerified",
      "outputs": [
        {
          "internalType": "bool",
          "name": "",
          "type": "bool"
        }
      ],
      "stateMutability": "view",
      "type": "function"
    },
    {
      "inputs": [
        {
          "internalType": "address",
          "name": "seller",
          "type": "address"
        }
      ],
      "name": "isSellerVerified",
      "outputs": [
        {
          "internalType": "bool",
          "name": "",
          "type": "bool"
        }
      ],
      "stateMutability": "view",
      "type": "function"
    },
    {
      "inputs": [
        {
          "internalType": "address",
          "name": "",
          "type": "address"
        }
      ],
      "name": "sellers",
      "outputs": [
        {
          "internalType": "bool",
          "name": "isVerified",
          "type": "bool"
        }
      ],
      "stateMutability": "view",
      "type": "function"
    },
    {
      "inputs": [
        {
          "internalType": "string",
          "name": "brandName",
          "type": "string"
        }
      ],
      "name": "verifyBrand",
      "outputs": [],
      "stateMutability": "nonpayable",
      "type": "function"
    },
    {
      "inputs": [
        {
          "internalType": "address",
          "name": "sellerAddress",
          "type": "address"
        }
      ],
      "name": "verifySeller",
      "outputs": [],
      "stateMutability": "nonpayable",
      "type": "function"
    }
  ],
  "bytecode": "0x6080604052348015600f57600080fd5b50336000806101000a81548173ffffffffffffffffffffffffffffffffffffffff021916908373ffffffffffffffffffffffffffffffffffffffff1602179055506108388061005f6000396000f3fe608060405234801561001057600080fd5b506004361061007d5760003560e01c80637b7d456f1161005b5780637b7d456f146100fe578063c900094f1461012e578063d1760e601461015e578063f851a4401461017a5761007d565b80631c50f44314610082578063377c460d1461009e5780636d47ab72146100ce575b600080fd5b61009c600480360381019061009791906105c9565b610198565b005b6100b860048036038101906100b39190610670565b610263565b6040516100c591906106b8565b60405180910390f35b6100e860048036038101906100e39190610670565b6102bc565b6040516100f591906106b8565b60405180910390f35b610118600480360381019061011391906105c9565b6102e7565b60405161012591906106b8565b60405180910390f35b610148600480360381019061014391906105c9565b610328565b60405161015591906106b8565b60405180910390f35b61017860048036038101906101739190610670565b610360565b005b61018261044b565b60405161018f91906106e2565b60405180910390f35b60008054906101000a900473ffffffffffffffffffffffffffffffffffffffff1673ffffffffffffffffffffffffffffffffffffffff163373ffffffffffffffffffffffffffffffffffffffff1614610226576040517f08c379a000000000000000000000000000000000000000000000000000000000815260040161021d9061075a565b60405180910390fd5b600160028260405161023891906107eb565b908152602001604051809103902060000160006101000a81548160ff02191690831515021790555050565b6000600160008373ffffffffffffffffffffffffffffffffffffffff1673ffffffffffffffffffffffffffffffffffffffff16815260200190815260200160002060000160009054906101000a900460ff169050919050565b60016020528060005260406000206000915090508060000160009054906101000a900460ff16905081565b6002818051602081018201805184825260208301602085012081835280955050505050506000915090508060000160009054906101000a900460ff16905081565b600060028260405161033a91906107eb565b908152602001604051809103902060000160009054906101000a900460ff169050919050565b60008054906101000a900473ffffffffffffffffffffffffffffffffffffffff1673ffffffffffffffffffffffffffffffffffffffff163373ffffffffffffffffffffffffffffffffffffffff16146103ee576040517f08c379a00000000000000000000000000000000000000000000000000000000081526004016103e59061075a565b60405180910390fd5b60018060008373ffffffffffffffffffffffffffffffffffffffff1673ffffffffffffffffffffffffffffffffffffffff16815260200190815260200160002060000160006101000a81548160ff02191690831515021790555050565b60008054906101000a900473ffffffffffffffffffffffffffffffffffffffff1681565b6000604051905090565b600080fd5b600080fd5b600080fd5b600080fd5b6000601f19601f8301169050919050565b7f4e487b7100000000000000000000000000000000000000000000000000000000600052604160045260246000fd5b6104d68261048d565b810181811067ffffffffffffffff821117156104f5576104f461049e565b5b80604052505050565b600061050861046f565b905061051482826104cd565b919050565b600067ffffffffffffffff8211156105345761053361049e565b5b61053d8261048d565b9050602081019050919050565b82818337600083830152505050565b600061056c61056784610519565b6104fe565b90508281526020810184848401111561058857610587610488565b5b61059384828561054a565b509392505050565b600082601f8301126105b0576105af610483565b5b81356105c0848260208601610559565b91505092915050565b6000602082840312156105df576105de610479565b5b600082013567ffffffffffffffff8111156105fd576105fc61047e565b5b6106098482850161059b565b91505092915050565b600073ffffffffffffffffffffffffffffffffffffffff82169050919050565b600061063d82610612565b9050919050565b61064d81610632565b811461065857600080fd5b50565b60008135905061066a81610644565b92915050565b60006020828403121561068657610685610479565b5b60006106948482850161065b565b91505092915050565b60008115159050919050565b6106b28161069d565b82525050565b60006020820190506106cd60008301846106a9565b92915050565b6106dc81610632565b82525050565b60006020820190506106f760008301846106d3565b92915050565b600082825260208201905092915050565b7f4e6f742061646d696e0000000000000000000000000000000000000000000000600082015250565b60006107446009836106fd565b915061074f8261070e565b602082019050919050565b6000602082019050818103600083015261077381610737565b9050919050565b600081519050919050565b600081905092915050565b60005b838110156107ae578082015181840152602081019050610793565b60008484015250505050565b60006107c58261077a565b6107cf8185610785565b93506107df818560208601610790565b80840191505092915050565b60006107f782846107ba565b91508190509291505056fea2646970667358221220383dde688eceb903cf36746ca4002829ebf1a634c2ae95eb4bb0b06c27df8da464736f6c634300081c0033",
  "linkReferences": {},
  "deployedLinkReferences": {}
}